:04075700023B000061
:0506F8001206FDD29284
:0F06FD00E4FFEFC3940F7480948050030F80F3D9
:01070C0022CA
:060751001206F8C292221C
:10070D00309202C292D293D2921206FDC293120679
:04071D00FDC2922265
:0D072100309202C292C2931206F8D29322C7
:09057700AC07AA0512070D7FD0A4
:02058000AE07C4
:10058200E4FDEDC39408748094805012EE3392001F
:10059200A2009293120751EE25E0FE0D80E4D29361
:0E05A2001206F8A2939200C2921206FDA20069
:0105B0002228
:10064500E4FEFDEDC394087480948050161206F8FC
:10065500A2939200EE25E0FEA200E4334206C29288
:050665000D80E0AF066E
:01066A00226D
:0B073B00C2931206FD120751D2932258
:0B074600D2931206FD120751D292223E
:02069000AC07B5
:1006920012057BAF0412058012070D7FD11205806F
:0A06A200120645AE07120721AF064D
:0106AC00222B
:1006AD00120577E4FF120580AF03120580AF021229
:0A06BD000580AF041205800207213A
:1006C7001205777F04120580AF04120580AF02126E
:0A06D7000580AF0312058002072121
:0A05E700750A00750B017FC87E0045
:1005F1007D017C00D3ED9FEE6480F8EC648098501F
:10060100167B017A000BBB00010AEB64334A70F5DB
:070611000DBD00010C80DDAE
:0106180022BF
:1005B100C2907F381206E87F011206E87F0F12060B
:1005C100E87F0C1206E87F801206E87F4F1205676C
:1005D1007F4B1205677FE87E031205F17F0112064A
:0605E100E87F800206E83D
:100538007F011206E87F801206E87F451205677F73
:100548004E1205677F541205677F451205677F5273
:0F0558001205677F201205677F531205677F54D6
:10056700D2908F80D2917F067E001205F1C2912230
:10066B008B198A1A891BAB19AA1AA91B120383604F
:10067B0013051BE51B7002051A14F9120383FF12F5
:05068B00056780E2227A
:0706E1007F011206E87F8093
:1006E800C2908F80D2917F067E001205F1C29122BE
:0C072E00E4FF7E0A78297420F608DEFC47
:01073A00229C
:1002C400EF25E02423F8E6FC08E6FD7B047A007FB2
:0102D400C069
:0602D5008F128B828A8368
:1002DB00E4F513F5148C178D181206E8E4F515F5F3
:1002EB0016C3E5169582E5836480F8E5156480985E
:1002FB00500F7F201205670516E51670E405158073
:10030B00E0E5184517606612072EE5184517602FB4
:10031B00AE17AF187C007D0A12039CED2430FF74DE
:10032B00292514F8A607AE17AF187C007D0A120317
:10033B009C8E178F180514E51470CF051380CBAF67
:10034B00121206E8E51424FFF516E51334FFF51534
:10035B00C3E51564809480401E74292516F8E6FFCA
:10036B00120567E516151670E7151580E3AF121227
:07037B0006E87F3012056760
:010382002258
:0C04B3008E128F138C148D158B828A839F
:1004BF007F801206E87F541205677F491205677F18
:1004CF004D1205677F451205677F201205677F3A3A
:1004DF001205677F20120567E51354F0C4540F24EB
:1004EF0030FF120567E513540F2430FF1205677FA5
:1004FF003A120567E51554F0C4540F2430FF120566
:10050F0067E515540F2430FF1205677F3A12056710
:10051F00AF82EF54F0C4540F2430FF120567AF823F
:09052F00EF540F2430FF020567B0
:10061900AB07AA067C007D0A12039C8D827C007DB3
:100629000AAF03AE0212039C7C007D0A12039CED03
:0B063900C4F8540FC868FDE5824DFFB7
:010644002293
:10000300C2B0D2B17511097510101205B1120538BD
:100013007F411205677F521205627F201205627FBE
:10002300491205677F4D1205677F451205677FD02B
:100033007E071205F1E4F508F5091206E1E5094525
:100043000870137F481205677F4F1205677F5512AB
:1000530005677F528019E5096401450870147F4DD7
:100063001205677F491205677F4E1205677F2012CD
:100073000567AF09EF25E02423F8E4F608F6F50A4F
:10008300F50B1202C4E50B450A6003020126E509DC
:1000930045087029209453E50925E02423F8E6FE5A
:1000A30008E6C39417EE64809480503EAF09EF25B1
:1000B300E02423F80806E618702A06802720942AED
:1000C300E50925E02423F8E6FE08E6C3943BEE6445
:1000D3008094805015AF09EF25E02423F80806E645
:1000E300187001061202C41205ED20952AE50925B0
:1000F300E02423F8E6FE08E6D39400EE64809480BF
:100103004015AF09EF25E02423F808E6161870011F
:10011300161202C41205ED3096030200881205E799
:100123000200880509E50970020508C39402E50881
:1001330064809480500302003D1205387F4F1205FE
:10014300677F501205677F201205627F491205679A
:100153007F4D1205677F451205677FD07E07120525
:10016300F1E4F508F5091206E1E509450870137F86
:10017300481205677F4F1205677F551205677F5247
:100183008019E5096401450870147F4D1205677FE6
:10019300491205677F4E1205677F20120567AF0975
:1001A300EF25E02435F8E4F608F6F50AF50BEF251C
:1001B300E024351202C9E50B450A6003020261E53A
:1001C3000945087029209458E50925E02435F8E607
:1001D300FE08E6C39417EE648094805043AF09EFA2
:1001E30025E02435F80806E618702A0680272094AF
:1001F3002FE50925E02435F8E6FE08E6C3943BEE37
:1002030064809480501AAF09EF25E02435F808067E
:10021300E618700106EF25E024351202C91205ED38
:1002230020952FE50925E02435F8E6FE08E6D3946A
:1002330000EE64809480401AAF09EF25E02435F87E
:1002430008E61618700116EF25E024351202C912CC
:1002530005ED3096030201B91205E70201B905095C
:10026300E50970020508C39402E508648094805090
:1002730003020169AF24AE231206198F0FAF26AE16
:10028300251206198F0EAF36AE351206198F11AF30
:1002930038AE371206198F107F011206E8E4FF12F9
:1002A30006908F0C7F011206908F0D7F021206902D
:1002B300A9077E00AD0D7C00AB0C7A001204B3805D
:0102C300DC5E
:03000000020427D0
:0C042700787FE4F6D8FD75813C02046E7D
:10038300BB010689828A83E0225002E722BBFE0278
:09039300E32289828A83E49322AB
:10039C00C2D5EC30E709B2D5E4C39DFDE49CFCEE7C
:1003AC0030E715B2D5E4C39FFFE49EFE1203D2C31F
:1003BC00E49DFDE49CFC80031203D230D507C3E41A
:0603CC009FFFE49EFE22EB
:10043300020003E493A3F8E493A34003F68001F2DC
:1004430008DFF48029E493A3F85407240CC8C333CA
:10045300C4540F4420C8834004F456800146F6DF99
:10046300E4800B0102040810204080900757E47ECB
:10047300019360BCA3FF543F30E509541FFEE4938E
:10048300A360010ECF54C025E060A840B8E493A355
:10049300FAE493A3F8E493A3C8C582C8CAC583CA80
:1004A300F0A3C8C582C8CAC583CADFE9DEE780BE38
:01075B00009D
:1003D200BC000BBE0029EF8DF084FFADF022E4CC0F
:1003E200F875F008EF2FFFEE33FEEC33FCEE9DECD8
:1003F200984005FCEE9DFE0FD5F0E9E4CEFD22ED1E
:10040200F8F5F0EE8420D21CFEADF075F008EF2F67
:10041200FFED33FD4007985006D5F0F222C398FD58
:050422000FD5F0EA22F5
:00000001FF
