:04045900023B000062
:0503E2001203E7D292B6
:0F03E700E4FFEFC3940F7480948050030F80F3F2
:0103F60022E4
:060453001203E2C2922236
:1003F700309202C292D293D2921203E7C2931203AF
:04040700E7C2922294
:0D041B00309202C292C2931203E2D29322E9
:09024400AC07AA051203F77FD0F4
:02024D00AE07FA
:10024F00E4FDEDC39408748094805012EE33920055
:10025F00A2009293120453EE25E0FE0D80E4D29398
:0E026F001203E2A2939200C2921203E7A200D1
:01027D00225E
:10034600E4FEFDEDC394087480948050161203E217
:10035600A2939200EE25E0FEA200E4334206C2928A
:050366000D80E0AF0670
:01036B00226F
:0B043500C2931203E7120453D293227B
:0B044000D2931203E7120453D2922261
:02039100AC07B7
:10039300120248AF0412024D1203F77FD112024D2D
:0A03A300120346AE0712041BAF065A
:0103AD00222D
:1003AE00120244E4FF12024DAF0312024DAF0212CD
:0A03BE00024DAF0412024D02041BB1
:1003C8001202447F0412024DAF0412024DAF021212
:0A03D800024DAF0312024D02041B98
:0802EA008F80D2917F067E0097
:1002F2007D017C00D3ED9FEE6480F8EC6480985021
:10030200167B017A000BBB00010AEB64334A70F5DD
:070312000DBD00010C80DDB0
:0103190022C1
:10027E00C2907F3812044B7F0112044B7F0F120481
:10028E004B7F0C12044B7F8012044B7F4F120413D2
:10029E007F4B1204137FE87E031202F27F011204D9
:0602AE004B7F8002044BAF
:08040B0054F0C4540F2430FF2B
:08041300D2901202EAC291220C
:10036C008B1D8A1E891FAB1DAA1EA91F1200B1600E
:10037C0013051FE51F7002051E14F91200B1FF12C0
:05038C00041380E222D1
:08044B00C2901202EAC29122E4
:0C042800E4FF7E0A78297420F608DEFC50
:0104340022A5
:060003008F168B828A8338
:10000900E4F517F5188C1B8D1C12044BE4F519F552
:100019001AC3E51A9582E5836480F8E51964809826
:10002900500F7F20120413051AE51A70E405198090
:10003900E0E51C451B6066120428E51C451B602F82
:10004900AE1BAF1C7C007D0A1200CAED2430FF7480
:10005900292518F8A607AE1BAF1C7C007D0A1200E3
:10006900CA8E1B8F1C0518E51870CF051780CBAFFA
:100079001612044BE51824FFF51AE51734FFF51994
:10008900C3E51964809480401E7429251AF8E6FF97
:10009900120413E51A151A70E7151980E3AF161241
:0700A900044B7F3012041329
:0100B000222D
:0C01E1008E128F138C148D158B828A8374
:1001ED007F8012044B7F541204137F491204137F36
:1001FD004D1204137F451204137F201204137F3A0E
:10020D001204137F20120413E51312040BE51312CD
:10021D00040E7F3A120413E51512040BE5151204B2
:10022D000E7F3A120413AF82EF12040BAF82EF541C
:07023D000F2430FF0204133F
:10031A00AB07AA067C007D0A1200CA8D827C007D8A
:10032A000AAF03AE021200CA7C007D0A1200CAEDAF
:0B033A00C4F8540FC868FDE5824DFFB9
:010345002295
:1002B400C2B0D2B175110975101012027E7F0112FD
:1002C400044BE4FF1203918F0C7F011203918F0DF5
:1002D4007F02120391A9077E00AD0D7C00AB0C7A5E
:0602E400001201E180DCC4
:03000000020155A5
:0C015500787FE4F6D8FD75813C02019C27
:1000B100BB010689828A83E0225002E722BBFE024D
:0900C100E32289828A83E4932280
:1000CA00C2D5EC30E709B2D5E4C39DFDE49CFCEE51
:1000DA0030E715B2D5E4C39FFFE49EFE120100C3C8
:1000EA00E49DFDE49CFC800312010030D507C3E4C3
:0600FA009FFFE49EFE22C0
:100161000202B4E493A3F8E493A34003F68001F2FE
:1001710008DFF48029E493A3F85407240CC8C3339F
:10018100C4540F4420C8834004F456800146F6DF6E
:10019100E4800B0102040810204080900459E47EA1
:1001A100019360BCA3FF543F30E509541FFEE49363
:1001B100A360010ECF54C025E060A840B8E493A32A
:1001C100FAE493A3F8E493A3C8C582C8CAC583CA55
:1001D100F0A3C8C582C8CAC583CADFE9DEE780BE0D
:01045D00009E
:10010000BC000BBE0029EF8DF084FFADF022E4CCE3
:10011000F875F008EF2FFFEE33FEEC33FCEE9DECAC
:10012000984005FCEE9DFE0FD5F0E9E4CEFD22EDF2
:10013000F8F5F0EE8420D21CFEADF075F008EF2F3C
:10014000FFED33FD4007985006D5F0F222C398FD2D
:050150000FD5F0EA22CA
:00000001FF
